{
  "contractName": "DocumentVerification",
  "abi": [
    {
      "inputs": [],
      "stateMutability": "nonpayable",
      "type": "constructor"
    },
    {
      "anonymous": false,
      "inputs": [
        {
          "indexed": true,
          "internalType": "address",
          "name": "owner",
          "type": "address"
        },
        {
          "indexed": false,
          "internalType": "string",
          "name": "hash",
          "type": "string"
        }
      ],
      "name": "DocumentAdded",
      "type": "event"
    },
    {
      "inputs": [
        {
          "internalType": "string",
          "name": "_hash",
          "type": "string"
        }
      ],
      "name": "addDocument",
      "outputs": [],
      "stateMutability": "nonpayable",
      "type": "function"
    },
    {
      "inputs": [
        {
          "internalType": "string",
          "name": "_hash",
          "type": "string"
        }
      ],
      "name": "verifyDocument",
      "outputs": [
        {
          "internalType": "address",
          "name": "owner",
          "type": "address"
        },
        {
          "internalType": "bool",
          "name": "exists",
          "type": "bool"
        }
      ],
      "stateMutability": "view",
      "type": "function",
      "constant": true
    }
  ],
  "bytecode": "0x608060405234801561001057600080fd5b5060405180604001604052803373ffffffffffffffffffffffffffffffffffffffff1681526020016040518060400160405280601381526020017f696e697469616c446f63756d656e744861736800000000000000000000000000815250815250600060405161007f90610268565b908152602001604051809103902060008201518160000160006101000a81548173ffffffffffffffffffffffffffffffffffffffff021916908373ffffffffffffffffffffffffffffffffffffffff16021790555060208201518160010190805190602001906100f0929190610145565b509050503373ffffffffffffffffffffffffffffffffffffffff167f109ce24571ecd30f021582dae119d3722d5f8fca2b31890b534e313003e157256040516101389061027d565b60405180910390a261031a565b828054610151906102b9565b90600052602060002090601f01602090048101928261017357600085556101ba565b82601f1061018c57805160ff19168380011785556101ba565b828001600101855582156101ba579182015b828111156101b957825182559160200191906001019061019e565b5b5090506101c791906101cb565b5090565b5b808211156101e45760008160009055506001016101cc565b5090565b60006101f560138361029d565b91507f696e697469616c446f63756d656e7448617368000000000000000000000000006000830152602082019050919050565b60006102356013836102ae565b91507f696e697469616c446f63756d656e7448617368000000000000000000000000006000830152601382019050919050565b600061027382610228565b9150819050919050565b60006020820190508181036000830152610296816101e8565b9050919050565b600082825260208201905092915050565b600081905092915050565b600060028204905060018216806102d157607f821691505b602082108114156102e5576102e46102eb565b5b50919050565b7f4e487b7100000000000000000000000000000000000000000000000000000000600052602260045260246000fd5b610732806103296000396000f3fe608060405234801561001057600080fd5b50600436106100365760003560e01c8063beee5eb71461003b578063f740e0451461006c575b600080fd5b610055600480360381019061005091906103c8565b610088565b6040516100639291906104e8565b60405180910390f35b610086600480360381019061008191906103c8565b61010c565b005b6000806000808460405161009c91906104d1565b908152602001604051809103902090508060000160009054906101000a900473ffffffffffffffffffffffffffffffffffffffff169250600073ffffffffffffffffffffffffffffffffffffffff168373ffffffffffffffffffffffffffffffffffffffff161415915050915091565b600073ffffffffffffffffffffffffffffffffffffffff1660008260405161013491906104d1565b908152602001604051809103902060000160009054906101000a900473ffffffffffffffffffffffffffffffffffffffff1673ffffffffffffffffffffffffffffffffffffffff16146101bc576040517f08c379a00000000000000000000000000000000000000000000000000000000081526004016101b390610533565b60405180910390fd5b60405180604001604052803373ffffffffffffffffffffffffffffffffffffffff168152602001828152506000826040516101f791906104d1565b908152602001604051809103902060008201518160000160006101000a81548173ffffffffffffffffffffffffffffffffffffffff021916908373ffffffffffffffffffffffffffffffffffffffff16021790555060208201518160010190805190602001906102689291906102bd565b509050503373ffffffffffffffffffffffffffffffffffffffff167f109ce24571ecd30f021582dae119d3722d5f8fca2b31890b534e313003e15725826040516102b29190610511565b60405180910390a250565b8280546102c99061065b565b90600052602060002090601f0160209004810192826102eb5760008555610332565b82601f1061030457805160ff1916838001178555610332565b82800160010185558215610332579182015b82811115610331578251825591602001919060010190610316565b5b50905061033f9190610343565b5090565b5b8082111561035c576000816000905550600101610344565b5090565b600061037361036e84610584565b610553565b90508281526020810184848401111561038b57600080fd5b610396848285610619565b509392505050565b600082601f8301126103af57600080fd5b81356103bf848260208601610360565b91505092915050565b6000602082840312156103da57600080fd5b600082013567ffffffffffffffff8111156103f457600080fd5b6104008482850161039e565b91505092915050565b610412816105db565b82525050565b610421816105ed565b82525050565b6000610432826105b4565b61043c81856105bf565b935061044c818560208601610628565b610455816106eb565b840191505092915050565b600061046b826105b4565b61047581856105d0565b9350610485818560208601610628565b80840191505092915050565b600061049e6017836105bf565b91507f446f63756d656e7420616c7265616479206578697374730000000000000000006000830152602082019050919050565b60006104dd8284610460565b915081905092915050565b60006040820190506104fd6000830185610409565b61050a6020830184610418565b9392505050565b6000602082019050818103600083015261052b8184610427565b905092915050565b6000602082019050818103600083015261054c81610491565b9050919050565b6000604051905081810181811067ffffffffffffffff8211171561057a576105796106bc565b5b8060405250919050565b600067ffffffffffffffff82111561059f5761059e6106bc565b5b601f19601f8301169050602081019050919050565b600081519050919050565b600082825260208201905092915050565b600081905092915050565b60006105e6826105f9565b9050919050565b60008115159050919050565b600073ffffffffffffffffffffffffffffffffffffffff82169050919050565b82818337600083830152505050565b60005b8381101561064657808201518184015260208101905061062b565b83811115610655576000848401525b50505050565b6000600282049050600182168061067357607f821691505b602082108114156106875761068661068d565b5b50919050565b7f4e487b7100000000000000000000000000000000000000000000000000000000600052602260045260246000fd5b7f4e487b7100000000000000000000000000000000000000000000000000000000600052604160045260246000fd5b6000601f19601f830116905091905056fea26469706673582212205d852eadf338a0ac49f8ebea9dae9834861955988a78385da572aba573c652cf64736f6c63430008000033",
  "immutableReferences": {},
  "source": "// SPDX-License-Identifier: MIT\r\n\r\n// DocumentVerification.sol\r\npragma solidity ^0.8.0;\r\n\r\ncontract DocumentVerification {\r\n    struct Document {\r\n        address owner;\r\n        string hash;\r\n    }\r\n\r\n    mapping(string => Document) documents;\r\n\r\n    event DocumentAdded(address indexed owner, string hash);\r\n\r\n    constructor() {\r\n        // Constructor sets an initial owner for the contract\r\n        documents[\"initialDocumentHash\"] = Document(\r\n            msg.sender,\r\n            \"initialDocumentHash\"\r\n        );\r\n        emit DocumentAdded(msg.sender, \"initialDocumentHash\");\r\n    }\r\n\r\n    function addDocument(string memory _hash) public {\r\n        require(\r\n            documents[_hash].owner == address(0),\r\n            \"Document already exists\"\r\n        );\r\n        documents[_hash] = Document(msg.sender, _hash);\r\n        emit DocumentAdded(msg.sender, _hash);\r\n    }\r\n\r\n    function verifyDocument(\r\n        string memory _hash\r\n    ) public view returns (address owner, bool exists) {\r\n        Document storage document = documents[_hash];\r\n        owner = document.owner;\r\n        exists = (owner != address(0));\r\n    }\r\n}\r\n",
  "sourcePath": "C:\\Users\\AVDHOOT SAWANT\\Desktop\\notaryChain\\truffle\\contracts\\DocumentVerification.sol",
  "compiler": {
    "name": "solc",
    "version": "0.8.0+commit.c7dfd78e.Emscripten.clang"
  },
  "schemaVersion": "3.4.16",
  "updatedAt": "2024-04-05T13:51:24.368Z",
  "networkType": "ethereum",
  "devdoc": {
    "kind": "dev",
    "methods": {},
    "version": 1
  },
  "userdoc": {
    "kind": "user",
    "methods": {},
    "version": 1
  }
}